:0300C7000108002D
:050003001200B580FEB3
:1000B500C283D2AF758901758CD8758AF0D2A9D261
:0200C5008C228B
:03000B0002009A56
:10009A00C0E0C0D0758CD8758AF00508E508B401AF
:0B00AA0005B283750800D0D0D0E03212
:0300000002000EED
:0C000E00787FE4F6D8FD758108020055EB
:10001A00020003E493A3F8E493A34003F68001F2F9
:10002A0008DFF48029E493A3F85407240CC8C333E7
:10003A00C4540F4420C8834004F456800146F6DFB6
:10004A00E4800B01020408102040809000C7E47E7F
:10005A00019360BCA3FF543F30E509541FFEE493AB
:10006A00A360010ECF54C025E060A840B8E493A372
:10007A00FAE493A3F8E493A3C8C582C8CAC583CA9D
:10008A00F0A3C8C582C8CAC583CADFE9DEE780BE55
:0100CA000035
:00000001FF
