:10024C00C1000C0B3F065B4F666D7D077F6F713FE6
:09025C00010A0001090A01080071
:10000E00758C3C758AB0758901D2AFD2A9D28CE5B8
:10001E0008703F1202668F0AE4F517AD0AE4FF126C
:10002E0000ED0517E517C3941E40F0E50AD39509B8
:10003E004002C2B0300009E50AD395094002C2B1B0
:10004E00200002D2B1E50AD395095009D2B1D2B03F
:10005E0080031200E920B72EC2B1D2B07F647E00B9
:10006E0012021120B712E5087005AD0AFF8004AD2B
:10007E00097F011200ED80EBE5087005750801801F
:10008E0003E4F508D2B120B624E5086401701EC25F
:10009E00B17F64FE12021120B6051200E980F80548
:1000AE0009E509C394FB40037509FAD2B130B503D3
:1000BE0002001DE5086401600302001DC2B17F64E9
:1000CE00FE12021120B5051200E980F81509E509A6
:0B00DE00B4FF03E4F509D2B102001DDD
:10026600E4FFC2B2C2B3D2B3C2B320B404D2B280E6
:05027600F9AF90C2B2D7
:01027B002260
:10021100E4FDFCC3ED9FEC9E5015E4FBFA0BBB0023
:0F022100010AEB640A4A70F50DBD00010C80E480
:0102300022AB
:0400E900AD097F01DD
:1000ED00A905D2A7D2A6D2A5D2A47580FFEF700420
:1000FD00E5168002E515F4F580C2A7D2A6D2A5D2E9
:10010D00A47F0A7E00120211D2A7D2A6D2A5D2A434
:10011D00E975F06484240BF8E6F4F580D2A7C2A645
:10012D00D2A5D2A4120211D2A7D2A6D2A5D2A4E9E9
:10013D0075F06484E5F075F00A84240BF8E6F4F5A7
:10014D0080D2A7D2A6C2A5D2A47F0A120211D2A72D
:10015D00D2A6D2A5D2A4E975F00A84740B25F0F8C5
:10016D00E6F4F580D2A7D2A6D2A5C2A4120211D26E
:08017D00A7D2A6D2A5D2A4224C
:03000B00020231BD
:04023100C0E0C0D099
:10023500758C3C758AB00518E518B40A05B20075C9
:0202450018009F
:05024700D0D0D0E03230
:0300000002018575
:0C018500787FE4F6D8FD7581200201CCE3
:1001910002000EE493A3F8E493A34003F68001F276
:1001A10008DFF48029E493A3F85407240CC8C3336F
:1001B100C4540F4420C8834004F456800146F6DF3E
:1001C100E4800B010204081020408090024CE47E80
:1001D100019360BCA3FF543F30E509541FFEE49333
:1001E100A360010ECF54C025E060A840B8E493A3FA
:1001F100FAE493A3F8E493A3C8C582C8CAC583CA25
:10020100F0A3C8C582C8CAC583CADFE9DEE780BEDC
:010265000098
:00000001FF
